:100000000C942A000C943C000C943C000C943C0092
:100010000C943C000C943C000C943C000C943C0070
:100020000C943C000C943C000C943C000C945A0042
:100030000C943C000C943C000C943C000C943C0050
:100040000C943C000C943C000C943C000C943C0040
:100050000C943C0011241FBECFE5D8E0DEBFCDBF1D
:1000600010E0A0E6B0E001C01D92A336B107E1F7B1
:100070000E9460010C9484010C940000DF93CF93E4
:10008000CDB7DEB7E3E5F0E084E88083E2E5F0E0B9
:100090001082A9E5B0E0E9E5F0E0808181608C9311
:1000A000AFE5B0E0EFE5F0E0808180688C93CF9120
:1000B000DF9108951F920F920FB60F9211242F9384
:1000C0003F934F935F936F937F938F939F93AF93E0
:1000D000BF93EF93FF93DF93CF93CDB7DEB78091BC
:1000E00060008F5F8093600080916000843FE9F43E
:1000F00080916100909162008930910554F4809163
:10010000610090916200019690936200809361007B
:1001100004C0109262001092610080916100909181
:1001200062000E94A80010926000CF91DF91FF91C1
:10013000EF91BF91AF919F918F917F916F915F915F
:100140004F913F912F910F900FBE0F901F901895D8
:10015000DF93CF9300D000D0CDB7DEB79A838983E9
:1001600089819A819C838B838B819C8184309105CA
:1001700009F46BC08B819C8185309105ECF48B81F7
:100180009C818130910509F445C08B819C8182302E
:1001900091052CF48B819C81009799F18AC08B8109
:1001A0009C818230910509F43EC08B819C81833013
:1001B000910509F441C07DC08B819C8187309105F8
:1001C00009F45EC08B819C81883091056CF48B8131
:1001D0009C818530910509F441C08B819C818630DA
:1001E000910509F444C065C08B819C8188309105DC
:1001F00009F44FC08B819C818930910509F451C06D
:1002000058C0ABE3B0E0EBE3F0E0808181708E6733
:100210008C934FC0ABE3B0E0EBE3F0E08081817002
:100220008C608C9346C0ABE3B0E0EBE3F0E0808100
:100230008170866B8C933DC0ABE3B0E0EBE3F0E004
:10024000808181708E698C9334C0ABE3B0E0EBE3C6
:10025000F0E0808181708C6C8C932BC0ABE3B0E0BC
:10026000EBE3F0E0808181708A6D8C9322C0ABE378
:10027000B0E0EBE3F0E080818170886F8C9319C06F
:10028000ABE3B0E0EBE3F0E0808181708E608C93B3
:1002900010C0ABE3B0E0EBE3F0E080818E6F8C93B5
:1002A00008C0ABE3B0E0EBE3F0E0808181708E6DDD
:1002B0008C930F900F900F900F90CF91DF91089536
:1002C000DF93CF93CDB7DEB7A4E3B0E0E4E3F0E093
:1002D000808180648C93A5E3B0E0E5E3F0E0808169
:1002E00080648C930E943E00EAE3F0E08EEF80830E
:1002F000ABE3B0E0EBE3F0E0808181708C9380E0D1
:0C03000090E00E94A800FFCFF894FFCF0F
:00000001FF
